:020000040800F2
:1000000008190020990100084F2300081D1E000850
:100010004D230008350800083D28000800000000B6
:1000200000000000000000000000000001010008C6
:10003000EF0800080000000045010008E124000866
:10004000B3010008B3010008B3010008B3010008C0
:10005000B3010008B3010008B3010008B3010008B0
:10006000B3010008B3010008B3010008B3010008A0
:10007000B3010008B3010008B3010008B908000883
:10008000B3010008B3010008B3010008B301000880
:10009000B3010008B3010008B3010008B301000870
:1000A000B3010008B3010008B3010008B301000860
:1000B000B3010008B3010008B3010008B301000850
:1000C000B3010008B3010008B3010008B301000840
:1000D000B3010008B3010008B3010008B301000830
:1000E000B3010008B3010008B3010008DFF80CD029
:1000F00000F03CFB00480047F132000808190020DE
:10010000224B19680868B0E8F00F80F30988BFF344
:100110006F8F4FF0000080F311884EF00D0E704786
:100120000000000006480068006880F3088862B696
:1001300061B6BFF34F8FBFF36F8F00DF00BF00BF0B
:1001400008ED00E0EFF30980BFF36F8F0F4B1A68E3
:1001500020E9F00F106008B54FF0500080F31188CF
:10016000BFF34F8FBFF36F8F03F0F0FE4FF000002F
:1001700080F31188BDE8084019680868B0E8F00FFE
:1001800080F30988BFF36F8F704700BF34000020F1
:10019000EFF3058070470000064880470648004797
:1001A000FEE7FEE7FEE7FEE7FEE7FEE7FEE7FEE727
:1001B000FEE7FEE745250008ED000008202A04DBE5
:1001C000203A21FA02F00021704721FA02F3D040D0
:1001D000C2F12002914008431946704740EA0103EA
:1001E0009B0703D009E008C9121F08C0042AFAD2ED
:1001F00003E011F8013B00F8013B521EF9D27047B1
:10020000D2B201E000F8012B491EFBD27047002258
:10021000F6E710B513460A4604461946FFF7F0FF05
:10022000204610BD10B54843044603F0D7F8002817
:1002300005D00021002C02D0641E0155FAE710BD44
:100240002DE9F04D81EA030404F0004B21F0004554
:1002500014464FF0000A23F0004150EA050220D076
:1002600054EA01021DD0C5F30A570246C5F3130331
:10027000C1F31300C1F30A5640F4801543F4801310
:10028000A7EB0608101BD64608F2FD3873EB0500F5
:1002900002D308F1010801E092185B41B8F1000FA8
:1002A00003DA00200146BDE8F08D00204FF48011F4
:1002B000064684460EE0171B73EB050705D3121B99
:1002C00063EB050306434CEA010C49084FEA300092
:1002D00092185B4150EA0107EDD152EA030012D0B7
:1002E00082EA040083EA0501084305D0101BAB41F4
:1002F00006D20122002306E000224FF0004302E074
:100300006FF0010253101AEB06004CEB085110EB92
:100310000A0041EB0B01BDE8F04D00F080B80EB5CE
:1003200040F2334102910021CDE900110A460B460B
:1003300000F084F803B000BDC1F30A5210B5C1F358
:10034000130140F2FF3341F480119A4201DA002098
:1003500010BD40F233439A42A2F2334203DC5242D0
:10036000FFF72CFF10BD904010BD00F0004230F0B0
:1003700000400AD0C10D01F56071C0F3160042EAD9
:100380000151C208400711437047002001467047E1
:1003900030B50B46014600202022012409E021FA55
:1003A00002F59D4205D303FA02F5491B04FA02F552
:1003B0002844151EA2F10102F1DC30BD2DE9F05FE9
:1003C0000546002092469B468846064681464024C4
:1003D0001BE02846414647462246FFF7EFFE5346BC
:1003E0005A46C01A914110D311461846224600F0D1
:1003F000CFF92D1A67EB01084F4622460120002154
:1004000000F0C6F917EB00094E41201EA4F10104CB
:10041000DFDC484631462A464346BDE8F09F10B52A
:10042000141E73F1000408DA401C41F10001921817
:100430005B411A4301D120F0010010BD2DE9F04DC0
:1004400092469B4611B1B1FA81F202E0B0FA80F215
:100450002032904600F09CF904460F4640EA0A001C
:1004600041EA0B0153465A46084313D0114653EA5A
:10047000010019D0C8F140025046FFF79FFE054623
:100480000E4650465946424600F082F9084305D0D0
:10049000012004E020463946BDE8F08D00200543E8
:1004A00046EAE0762C4337430A986305E40AA0EB5A
:1004B00008000022FD0A44EA47540A3002D5002011
:1004C0000146E9E7010510196941DDE90845001910
:1004D0006941BDE8F04DA2E72DE9FE4F804681EA73
:1004E0000300C00F0C46009021F0004123F00045AE
:1004F000B8EB0200A94105D24046214690461C4671
:100500000B46024623F00040104347D0270DC7F3A7
:100510000A00C3F30A510290401A019040286BDA96
:10052000C3F3130040F4801B0098924620B10023CF
:10053000D2EB030A63EB0B0B01985946C0F1400262
:10054000504600F025F906460D4650465946019A98
:1005500000F02DF910EB08006141002487EA1152E8
:1005600084EAE7731A4340D0009A62B3019A012AE1
:100570004FEA075215DC001B61EB02014FF000420D
:1005800002EA0752CDE90042001C41F580113246D3
:100590002B46FFF753FF03B0BDE8F08F40462146DE
:1005A000F9E7001B61EB0201001C41F58013001804
:1005B0005B412018A2F5001747EB030140EAD57014
:1005C000B6196D4111E06D084FEA360645EAC0756F
:1005D0004FEA0752001B61EB0201001C41F580113C
:1005E00049084FEA30000019514132462B4603B00A
:1005F000BDE8F04FFFF713BF009801224000002331
:10060000D0EB020263EBE073009821464FEAE074FE
:10061000B8EB000061EB0401E9E783F000435BE71E
:1006200081F0004158E72DE9FE4F81EA030404F010
:10063000004421F0004100944FF0000B23F00043F0
:1006400050EA01045ED052EA03045BD0C3F30A54BB
:10065000C1F30A552C44A4F2F3340194A0FB0254D4
:10066000C1F3130141F48011C3F3130343F4801366
:1006700001FB024400FB034E840A970A44EA8154BA
:1006800047EA8357A4FB076802958D0A05FB078597
:100690004FEA932C04FB0C542705029D4FEA0658A1
:1006A00047EA1637B5EB08056EEB070C870E920E7E
:1006B00047EA811742EA8312A7FB0201B6EB0B015E
:1006C00064EB00042B0D43EA0C335E1844EB1C5022
:1006D000DA465146E7FB0201C5F313044FEA0B3338
:1006E00043EA14534FEA0432019C43EA0603A4F19F
:1006F0000C040294009CCDE900B4FFF79FFE03B008
:10070000BDE8F08F00200146F9E7C1F30A52C1F3BA
:10071000130140F2FF3341F480119A4202DA0020C3
:100720000146704740F233439A42A2F2334202DC60
:100730005242FFF743BD00F02BB8000030B5041E55
:1007400071F1000404DB4FF00044404264EB01010E
:10075000141E73F1000405DB1C464FF000435242A7
:1007600063EB0403994208BF904230BD064C074D2D
:1007700006E0E06840F0010394E807009847103471
:10078000AC42F6D3FFF7B6FC505B0008705B000884
:10079000202A04DB203A00FA02F100207047914041
:1007A000C2F1200320FA03F3194390407047202A36
:1007B00006DBCB17203A41FA02F043EAE07306E089
:1007C00041FA02F3D040C2F1200291400843194699
:1007D0007047000008B5064910200A4608700A2034
:1007E000009001234621034800F068FC08BD00008A
:1007F000200000209C00002008B50A200090022361
:10080000094A4621094800F053FB0748008840BACE
:10081000FFF785FD4FF03332054BFFF711FDFFF772
:100820008BFD80B208BD0000200000209C0000204D
:100830003333F33FFEE7000070B500250446056042
:100840000846FFF792FD02460B4603A1204601F041
:10085000F7FF255470BD000025332E3266000000DE
:100860000A4601A101F0ECBF256400000A4601A17F
:1008700001F0E6BF25303264000000000B4882B072
:10088000816941F0080181618069082100F0080058
:1008900000900748016001210022C0E90112C160F7
:1008A0000146044802B000F047B9000000100240C1
:1008B00008020020000C0140014800F01BB80000B5
:1008C000C401002030B590F840500124AC40C56B05
:1008D0006C60046863604368102B036803D0996000
:1008E0000068C26030BD9A600068C16030BD70476A
:1008F000FEE700002DE9F05FC16B0C6801680B6832
:10090000D0F840C0042202FA0CF2494DDFF824A1CD
:10091000494E4A4FDFF828B1DFF828E122422CD0B7
:100920005A072AD50A68920603D40A6822F00402FC
:100930000A600168A94201D1042219E0514501D1A0
:10094000402215E0B14202D14FF4806210E0B9427A
:1009500002D14FF480420BE0594502D14FF480227E
:1009600006E0714502D14FF4800201E04FF0806251
:100970002F4908394A60C16A3BE04FF0020808FA83
:100980000CF818EA040F4FF000094FF0010235D0BF
:100990005FEA837832D50B689B0605D40B6823F099
:1009A0000A030B6080F821200168A94201D10222CC
:1009B00019E0514501D1202215E0B14202D14FF496
:1009C000007210E0B94202D14FF400520BE05945D9
:1009D00002D14FF4003206E0714502D14FF400120B
:1009E00001E04FF00072124908394A6080F8209007
:1009F000816A00291AD0BDE8F05F0847082505FA8A
:100A00000CF5254212D01B0710D50B6823F00E03FE
:100A10000B6090F84010C36B02FA01F159608263D9
:100A200080F8212080F82090016BE2E7BDE8F09F7C
:100A3000080002401C000240300002404400024016
:100A4000580002406C00024030B528B308C8134972
:100A500014221944B1FBF2F18900C163104981638A
:100A6000022141771A6843F6F0718A43D0E90014F5
:100A70002143D0E902452C432143046921434469C1
:100A800021438469214311431960002141630122FC
:100A900042770177084630BD012030BDF8FFFDBF29
:100AA0000000024070B5044690F82000002501289F
:100AB0000CD0012084F8200094F821600020012E41
:100AC00006D084F820000225284670BD022070BDA3
:100AD000022684F82160A0632068066826F00106DB
:100AE00006602046FFF7EEFEE06A002820680168F5
:100AF00002D041F00E0106E021F0040101602068FF
:100B0000016841F00A0101602068016841F00101BB
:100B10000160D9E770B5044600F00AF90546601C8B
:100B200002D004480078044400F002F9401BA042BF
:100B3000FAD370BD240000202DE9F84FDFF8B891FA
:100B4000002409F1040A0AF1040B23460F270BF1D4
:100B5000040EC9E00125A5402A40AA427DD1674E76
:100B6000D1F804C0ACEB0608B44532D014DCBCF1BB
:100B7000030F3AD009DCBCF1000F2AD0BCF1010F01
:100B80001CD0BCF1020F31D11DE0BCF1110F17D008
:100B9000BCF1120F2AD119E0B8F5881F19D006DC74
:100BA000B8F5803F15D0B8F5801F1FD111E0B8F51A
:100BB000001F0ED0B8F5041F18D10AE0CB6815E06D
:100BC000CB681B1D12E0CB6808330FE0CB680C33F9
:100BD0000CE08B682BB1012B4FF0080303D045616B
:100BE00004E0042302E0056100E00023FF2A01D8AD
:100BF000064601E000F104064FEA840501D9A5F19B
:100C00002005D6F8008007FA05FC28EA0C0803FA4C
:100C100005F548EA0508C6F800804D68ED0062D584
:100C2000374DAE6946F00106AE61AD6924F00306AA
:100C300005F001050095334D06EB050CDCF8085076
:100C4000A607360F07FA06F825EA0805DFF8B88088
:100C5000404503D14FF0000817E044E0DFF8AC80D6
:100C6000404502D14FF001080FE0DFF8A480404575
:100C700002D14FF0020808E0DFF89880404502D129
:100C80004FF0030801E04FF0040808FA06F848EABC
:100C90000508CCF808804D68D9F80060ED034D4692
:100CA00001D5164300E096432E604D68DAF80060E7
:100CB000AD03554601D5164300E096432E604D68BE
:100CC000DBF80060ED025D4601D5164300E0964377
:100CD0002E604D68DEF80060AD02754601D5164302
:100CE00000E096432E60641C0D682A46E5407FF4C0
:100CF00031AFBDE8F88F0000000401400000111082
:100D0000001002400000014000080140000C0140BA
:100D10000010014000140140C2680A4201D0416144
:100D20007047016170470AB1016170470904FBE730
:100D300001488068704700002400002070B504005E
:100D40001BD094F83D00002520B984F83C50204683
:100D500000F0E2FA242084F83D002068016821F0C8
:100D60000101016000F080FC4D4A6168914201D8A8
:100D70004C4900E04C49884201D2012070BD4B49EA
:100D80002368B0FBF1F15E6826F03F060E435E601B
:100D90006368934206D94FF4967359434FF47A73BC
:100DA000B1FBF3F12368491C1E6A26F03F0631436C
:100DB00019626168914210D84900401EB0FBF1F2FF
:100DC000521CC2F30B02042A01D2042022E0B0FB21
:100DD000F1F0401CC0F30B001CE0A368F3B301EB7F
:100DE000C10202EB0116421EB2FBF6F2521C42F4A3
:100DF0008042120549D093B301EBC10202EB01110D
:100E0000401EB0FBF1F0401CC0F30B0040F48040EA
:100E100040F400402168CA694CF6FF739A431043BE
:100E2000C861D4E90701084321680A6822F0C002BA
:100E300010430860D4E9030101432068826848F246
:100E4000FF339A4311438160D4E9050108432168C7
:100E5000CA6822F0FF021043C86001E00EE016E00D
:100E60002068016841F0010101602564202084F8B8
:100E70003D00256384F83E50002070BD01EB410623
:100E8000421EB2FBF6F2521CB3E70120C2E701EBAF
:100E90004101401EB0FBF1F0401CC0F30B00B7E76E
:100EA000A086010080841E0000093D0040420F0022
:100EB0002DE9F84F1F4690468A460446DDF82890F3
:100EC000FFF736FF054694F83D00202879D1192315
:100ED000012277492046009501F0D6F80028F5D187
:100EE00094F83C0001286CD0012084F83C00206874
:100EF0000168C90703D1016841F001010160206860
:100F0000016821F400610160222084F83D00102076
:100F100084F83E0000262664C4F824806785608D2E
:100F200020856448E0622B464A465146204600F040
:100F30008DFF00287ED1208D5F4F68B1012814D02D
:100F40000228206801681ED041F480610160206899
:100F50004169806900909DE0206841698169009144
:100F6000016841F40071016094E02068016821F497
:100F70008061016072B620684169816900910168F1
:100F800041F400710AE041F40061016072B620682A
:100F9000416981690091016821F48061016062B654
:100FA00078E0032850D801280CD002284B464FF097
:100FB00000023946204600950FD001F065F8C8BB05
:100FC00010E073E02A464946204601F0DCF888BB71
:100FD00020680069616A087053E001F055F848BB69
:100FE00072B61AE02068016821F48061016072B66F
:100FF00020680069616A0870606A401C6062208D28
:10100000401E2085608D401E60854B46002239467B
:101010002046009501F038F860B92068016841F475
:101020000071016020680069616A0870606A401C94
:10103000606200E00EE0218D491E2185618D491E10
:10104000618562B621681AE02A464946204601F0C9
:101050009AF810B10120BDE8F88F20680069616A34
:101060000870606A401C6062218D491E2185618D77
:10107000491E618521684A69D24352070AD4096929
:101080000170606A401C6062208D401E2085608D6A
:10109000401E6085208D002883D1202084F83D00EB
:1010A00084F83E6084F83C600020D4E70220D2E758
:1010B000020010000000FFFF040001002DE9F84FBE
:1010C0001F4690468A460446DDF82890FFF730FE1A
:1010D000054694F83D0020287FD11923012240497C
:1010E0002046009500F0D0FF002876D194F83C000F
:1010F000012872D0012084F83C0020680168C907EB
:1011000003D1016841F0010101602068016821F408
:1011100000610160212084F83D00102084F83E0029
:1011200000262664C4F824806785608D20852D48BC
:10113000E0622B464A465146204600F0F1FE90B947
:10114000206841698069009036E02A464946204679
:1011500001F04CF850B1206C042804D120680168DB
:1011600041F4007101600120BDE8F88F606A2168D8
:1011700000780861606A401C6062618D491E61856B
:10118000218D491E89B2218522685369DB435B07A3
:101190000BD451B100781061606A401C6062608DB0
:1011A000401E6085208D401E20852A4649462046E7
:1011B00000F044FF0028CED1208D0028C5D154F87E
:1011C0003D0B016841F400710160202004F81E0904
:1011D000E67766770020C7E7FFE70220C4E7000054
:1011E000020010000000FFFF2DE9FF4F83B09A4678
:1011F000DDE9119793460446DDF84080FFF798FD3E
:10120000054694F83D0020287FD11923012240494A
:101210002046009500F038FF002876D194F83C0075
:10122000012872D0012084F83C0020680168C907B9
:1012300003D1016841F0010101602068016821F4D7
:1012400000610160212084F83D00402084F83E00C8
:1012500000262664C4F82480A4F82A90608D208596
:101260002C48E062CDE9007553465A462046049961
:1012700000F09AFE70B930E02A463946204600F068
:10128000B5FF58B1206C042804D12068016841F4EE
:1012900000710160012007B0BDE8F08F606A21682D
:1012A00000780861606A401C6062218D491E89B225
:1012B0002185628D521E628522685369DB435B077C
:1012C0000BD469B100781061606A401C6062208DA7
:1012D000401E2085608D401E6085208D0028CBD16A
:1012E0002A463946204600F0A9FE0028CAD154F803
:1012F0003D0B016841F400710160202004F81E09D3
:10130000E67766770020C6E7FFE70220C3E7000024
:10131000020010000000FFFF10B586B00021009110
:1013200001910291039100680F4988421AD10F4C34
:10133000A06940F00800A061A069694600F00800BB
:101340000490C020009012200190032003900848D0
:10135000FFF7F2FBE06940F40010E061E06900F49F
:101360000010049006B010BD005400400010024070
:10137000000C014002488168027811448160704786
:1013800024000020074810B5016841F010010160F9
:10139000032000F0C1F80F2000F006F800F024F858
:1013A000002010BD0020024070B50D4D04464FF4E2
:1013B0007A712878B1FBF0F00A490968B1FBF0F0C6
:1013C00000F038FB48B9102C07D200222146501EED
:1013D00000F082F800206C6070BD012070BD00003C
:1013E00024000020300000200F4808B5816941F03A
:1013F00001018161816901F001010091C16941F040
:101400008051C161C069002200F0805000900F211E
:10141000901E00F061F80548416821F0E06141F05C
:101420008061416008BD00000010024000000140E2
:101430002DE9F04116460F46040004D094F8390017
:10144000002518B107E00120BDE8F08184F838508C
:10145000204600F0CFFB242084F839002068C168C2
:1014600021F40051C160204601F05AF92068016959
:1014700021F4904101612068416921F02A01416114
:101480002068016921F00F01016120680169394379
:1014900001612068C16821F40061C1602068C168F1
:1014A0003143C1602068C16841F40051C160E56307
:1014B000202084F8390084F83A000020C4E700288E
:1014C00009DB00F01F02012191404009800000F17A
:1014D000E020C0F800117047F0B40E4B1B680C46BA
:1014E000C3F30223C3F10705042D00D90425191DF8
:1014F000072901D2002300E0DB1E012606FA05F1D0
:10150000491E214099409E40761E16403143F0BC52
:1015100001F0AAB90CED00E0064900F007020868E6
:101520004FF6FF03184040EA0220034A10430860C8
:10153000704700000CED00E00000FA052DE9F047CF
:101540000F46050061D0434E306800F00700B842F6
:1015500009D2306820F0070038433060306800F06E
:101560000700B84251D128683B4C810712D540078B
:1015700003D5606840F4E06060602878000703D518
:10158000606840F4605060606068A96820F0F00016
:10159000084360602878C00728D06868012810D008
:1015A0002168022810D0890700292EDA616821F00D
:1015B000030101436160FFF7BBFB804641F28839BC
:1015C0000DE021688903EFE78901EDE7FFF7B0FB44
:1015D000A0EB0801494502D90320BDE8F087606807
:1015E000696800F00C00B0EB810FEFD1306800F0BB
:1015F0000700B8420BD9306820F00700384330604C
:10160000306800F00700B84201D00120E5E72878F3
:10161000400705D56068E96820F4E0600843606031
:101620002878000706D56068296920F4605040EAF0
:10163000C100606000F038F86168084AC1F3031126
:10164000515CC8400649086006480068FFF7ACFED8
:101650000020C2E700200240001002402C5B00087E
:10166000300000202800002004480549006849682F
:10167000044AC1F30221515CC84070473000002089
:10168000001002403C5B00080448054900684968B6
:10169000044AC1F3C221515CC840704730000020A9
:1016A000001002403C5B000812A185B00FC98DE814
:1016B0000F0014A0144A006804905168134801F008
:1016C0000C03042B10D0082B0ED1C1F38343C903A4
:1016D0001DF803000AD5516804AAC1F34041515CCA
:1016E0000A4A5043B0FBF1F005B07047084948433F
:1016F000FAE7000002030405060708090A0B0C0DAF
:101700000E0F1010010200000010024000127A00BB
:1017100000093D002DE9F84F040070D02078C04D3D
:10172000C00749D06868C0F38100012807D0686805
:10173000C0F38100022809D16868C00306D5286873
:10174000800339D560680028E7D035E06068B0F5DF
:10175000803F0BD010B1B0F5A02F11D0286820F435
:1017600080302860286820F4802002E0286840F457
:1017700080302860606890B1FFF7DAFA06460AE028
:10178000286840F480202860F0E700BFFFF7D0FA17
:10179000801B642873D828688003F7D50CE0FFF716
:1017A000C7FA064605E000BFFFF7C2FA801B6428AF
:1017B000F0D828688003F7D420789A4E80074FF03D
:1017C00001094FF0000839D5686810F00C0F07D0F8
:1017D0006868C0F38100022809D16868C00306D494
:1017E0002868800714D52069012808D110E02069F5
:1017F000B0B1C6F80090FFF79BFA074605E00AE192
:10180000FFF796FAC01B0228C4D828688007F7D5CE
:101810002868616920F0F80040EAC10028600DE006
:10182000C6F80080FFF784FA074604E0FFF780FA65
:10183000C01B022823D828688007F7D42078000727
:101840002CD57948A169D9B1C0F80090FFF770FA9A
:10185000074604E0FFF76CFAC01B02280FD8686A3D
:101860008007F7D571484FF4FA510068B0FBF1F0EA
:10187000009000BF0098411E0091FAD20EE080E077
:10188000C0F80080FFF754FA074604E0FFF750FA6B
:10189000C01B022875D8686A8007F7D420784007F3
:1018A00060D5E8690027C00008D4E86940F080509E
:1018B000E861E869012700F0805000905C48016809
:1018C000C90513D40168834641F480710160FFF7B4
:1018D0002FFA824606E000BFFFF72AFAA0EB0A00C3
:1018E00064284ED8DBF80000C005F5D5E068012873
:1018F0000AD008B1052813D0286A20F00100286218
:10190000286A20F0040002E0286A40F00100286202
:10191000E06841F2883B98B1FFF70AFA82460BE093
:10192000286A40F004002862EEE700BFFFF700FAE3
:10193000A0EB0A0159455AD8286A8007F6D50CE071
:10194000FFF7F6F9824605E0FFF7F2F9A0EB0A018E
:1019500059454CD8286A8007F6D41FB1E86920F0B1
:101960008050E861E06988B36968C1F381010229A8
:1019700044D00228C6F8608004D0FFF7D9F90446A5
:1019800038E034E0FFF7D4F9074604E0FFF7D0F978
:10199000C01B02282BD828688001F7D4206AB0F534
:1019A000803F05D16868A16820F400300843686072
:1019B000D4E908010843696821F474110843686098
:1019C000C6F86090FFF7B4F9044606E025E000BFD2
:1019D000FFF7AEF9001B022809D828688001F7D567
:1019E0001BE000BFFFF7A4F9001B022802D9032067
:1019F000BDE8F88F28688001F4D40EE00128F7D004
:101A00006868226A00F48031914204D1616A00F46E
:101A10007010884201D00120EAE70020E8E70000CA
:101A20000010024000004242800442423000002088
:101A30000070004010B5401EB0F1807F01D301203E
:101A400010BD4FF0E02460610F21601700F00CFF23
:101A50000020A06107202061002010BD70B590F823
:101A60003C20012A19D0012400F83C4F0222427088
:101A700050F83C3C5A689D6822F070060A68496834
:101A8000324325F0800529435A6050F83C2C916080
:101A9000447000210170084670BD022070BD10B571
:101AA000040003D094F83D0010B107E0012010BD00
:101AB000002084F83C00204600F00CF8022084F856
:101AC0003D00211D206800F061FD012084F83D00EB
:101AD000002010BD08B50068B0F1804F08D105485E
:101AE000C16941F00101C161C06900F001000090CD
:101AF00008BD000000100240022180F83D1001687E
:101B00008A6802F00702062A03D00A6842F001023E
:101B10000A60012180F83D100020704770B504462E
:101B200090F83C00012817D0012584F83C50022091
:101B300084F83D002068826822F0770222F47F4218
:101B400082600868502830D00DDC20284DD005DC9C
:101B500098B310283BD148E0022070BD302844D013
:101B6000402834D139E0602828D0702806D0B0F55C
:101B7000805F2CD0B0F5005F29D10AE0CB68D1E9B5
:101B80000121206800F038FD2068816841F077016C
:101B900009E0CB68D1E90121206800F02DFD206823
:101BA000816841F48041816011E0CA684968206819
:101BB00000F034FD5021206807E016E0CA6849684B
:101BC000206800F03CFD6021206800F01FFD84F8D3
:101BD0003D50002084F83C0070BDCA684968206808
:101BE00000F01CFD40212068EFE722680146104606
:101BF000EBE7704770B586B0002506460095019565
:101C00000295039500681E49884236D11D498869AE
:101C100040F480408861886900F4804004908869BD
:101C200040F0040088618869174C00F004000490BB
:101C30004815009002200190032003906946204639
:101C4000FEF77AFF2015CDE900056946204602958A
:101C5000FEF772FF0E4C0D48C4E900058020C4E970
:101C6000025025616561A5612046E561FEF7ECFE45
:101C700008B1FEF73DFE7463666206B070BD0000F9
:101C800000380140001002400008014058000240A6
:101C9000C4010020F8B5044690F83A0020283CD151
:101CA000C1B3BAB394F83800012836D0012084F8C3
:101CB0003800A162A2850025E563222084F83A005D
:101CC000636B17489862636B1648D862636B16485B
:101CD0001863606B134645630846666B21680246CD
:101CE0003046091DFEF7DEFE20680168416800915C
:101CF00084F83850C16841F48071C160206841693E
:101D000041F0010141612068416941F040014161B8
:101D10000020F8BDFFE70120FBE70220F9E7000003
:101D2000AD260008E92600086326000810B5044621
:101D30004FF400510848FEF7EFFF4FF47A730A2280
:101D40000649204600F00DF82046BDE810400A2262
:101D50000249FFF79FBF0000001001407001002002
:101D600070472DE9F843044690F839001F4616469F
:101D70000D46202850D1A5B19EB194F83800012815
:101D80004AD0012084F838004FF00008C4F83C80A5
:101D9000212084F83900FEF7CBFFA6848146E68433
:101DA00026E00120BDE8F883E08C401EE084A068B6
:101DB0004B46B0F5805F4FF000024FF080012046A7
:101DC000009703D000F008FDE8B90DE000F004FD35
:101DD000C8B928882168C0F308004860206908B1A4
:101DE0006D1C05E0AD1C03E0216815F8010B48608F
:101DF000E08C0028D8D14B46002240212046009795
:101E000000F0EAFC08B10320CCE7202084F8390078
:101E100084F838800020C5E70220C3E7FEE70168A8
:101E20004A69D24352050FD46FF480624A6100219F
:101E300040F8301F202242738173026942F004028D
:101E40000261017301207047002070472DE9F84FAF
:101E50000446C06A1E4692460D4621680A6842F44E
:101E600080620A60082807D0012805D010F5803F5D
:101E700002D0206B112804D12068016841F48071E0
:101E800001604FF00118534600224146204600965B
:101E900000F0FAF8F0BB206908F10109B0F5804FB5
:101EA0000FD00620216800EAD51747F0F00008613E
:101EB0003346524608F10701204600F019F948BBA5
:101EC00003E0E8B240F001001BE02168E8B20861DD
:101ED000334652464946204600F00AF9D0B92068F8
:101EE000416981690091016841F480710160534644
:101EF000002241462046009600F0C6F850B947F04F
:101F0000F10021680861334652464946204600F0F8
:101F1000EFF800E001E0002800D00120BDE8F88FD4
:101F2000F8B50446C06A1E460D461746082807D075
:101F3000012805D010F5803F02D0206B122804D173
:101F40002068016841F480710160134600224FF05F
:101F500001112046009600F097F808BB2069B0F503
:101F6000804F0ED00620216800EAD51040F0F00026
:101F7000086133463A460B49204600F0B9F878B973
:101F800002E005F0FE0000E0E8B2216808610549C2
:101F900033463A46891F204600F0AAF8002800D0B0
:101FA0000120F8BD080001002DE9F843044600684F
:101FB0000D46DDE9089701689846164641F48071A0
:101FC00001604B4600224FF001112046009700F0BF
:101FD0005BF8E0B9216805F0FE0008613B464A461F
:101FE0001549204600F084F888B920684169806965
:101FF00000903A464946204600F0F8F850B1206C6F
:10200000042804D12068016841F4007101600120B6
:10201000BDE8F883F5B2B8F1010F09D02168300AA4
:1020200008613A464946204600F0E0F80028E6D12B
:10203000206805610020EBE70200010070B516463C
:102040000D4604460DE02046FFF7E9FE08B10120E9
:1020500070BD681C05D0FEF76BFE801BA84207D838
:1020600035B120684069C0434007ECD4002070BD02
:10207000002044F8300F20216173A073216941F0E2
:10208000200121612073E2E72DE9F0471E469046CA
:102090000D460446C1F30747DDF8209008E0701CA8
:1020A00006D0FEF745FEA0EB0900B0420FD876B18E
:1020B0002068012F18D0806925EA00000004000C78
:1020C00014D000214145EAD00020BDE8F08700206F
:1020D00044F8300F20216173A073216941F0200181
:1020E000216120730120F0E74069E5E70121E9E77C
:1020F0002DE9F0479A4691460E46044600254FF0DA
:102100002008C1F3074725E020684069C043400527
:1021100014D42068016841F40071016021686FF4F3
:1021200080604861256384F83D8084F83E50206CCF
:1021300040F00400206484F83C501FE0B9F1FF3FF8
:1021400008D0FEF7F5FDA0EB0A0149450CD8B9F11E
:10215000000F09D02068012F13D0806926EA000003
:102160000004000C0BD0CFE744F8305F84F80D80FA
:10217000A573206940F02000206125730120BDE88F
:10218000F0874069EAE72DE9F041002590460E46C8
:102190000446202717E04069C043C0060CD454F819
:1021A000301B6FF01000486144F810596777A5772D
:1021B000206A2062257717E0FEF7BAFDA0EB080041
:1021C000B04208D83EB120684169C9434906E2D40B
:1021D0000020BDE8F08144F8305F6773A573206983
:1021E00040F02000206125730120F2E770B516460B
:1021F0000D4604460DE02046FFF711FE08B1012010
:1022000070BD681C05D0FEF793FD801BA84207D85F
:1022100035B120684069C0430006ECD4002070BD91
:10222000002044F8300F20216173A073216941F030
:10223000200121612073E2E72DE9F04186B00024FE
:1022400020480094019402940394816941F01001A4
:102250008161816901F010010491816941F00801F7
:102260008161816901F008010491816941F00401F3
:1022700081618069144F00F004004FF40055049010
:10228000002229463846FEF74EFDDFF84080002246
:1022900004214046FEF747FD0095022601250396DE
:1022A000CDE9015469463846FEF746FC0420CDE9E5
:1022B0000005CDE9024669464046FEF73DFC06B002
:1022C000BDE8F0810010024000100140000C014008
:1022D00010B586B000241A48009401940294039427
:1022E00004944FF08041059401601649164A09682C
:1022F000B1FBF2F189B2491EC0E901144FF6FF713A
:10230000C0E903148461FFF7CAFB00B1FEE74FF494
:102310008050009069460A48FFF700FC00B1FEE7D4
:10232000049404A906480594FFF798FB00B1FEE762
:102330000348FFF7E1FB002800D0FEE706B010BD20
:10234000F00000203000002040420F00FEE7704700
:1023500086B0012001F09EFB01F01AFC4FF47A7662
:10236000304601F071F8564D01206872A8720020C5
:10237000E872287306202871152068710920A87159
:102380001320E8710220A8700C2068700A202870C1
:10239000304601F059F84B4CDFF82C9105F10E084E
:1023A00047483346032249A14A38FFF7DAFCFEF7D3
:1023B00023FA074602A800F055FF0D2202A9404863
:1023C000FDF70CFF3E4801F063F8012001F062FBCD
:1023D0000221012001F0D6FBA9786846FEF746FAF3
:1023E000D4E900120023684601F058FCD4E9001239
:1023F000002337A001F052FC69786846FEF736FAF0
:10240000D4E900120023684601F048FCD4E9001228
:10241000002330A001F042FC2979684600F033FF28
:10242000D4E900120023684601F038FCD4E9001218
:10243000002329A001F032FC69796846FEF716FAFC
:10244000D4E900120023684601F028FCD4E9001208
:10245000002322A001F022FCA9796846FEF706FAC3
:10246000D4E900120023684601F018FCD4E90012F8
:1024700000231AA001F012FCE9796846FEF7F6F98C
:10248000D4E900120023684601F008FC1721084631
:1024900001F078FBD8F804106846FEF7CDF939460C
:1024A0006846FEF7DDF9D9E900120023684601F01D
:1024B000F5FB01F06DFB304600F0C6FF70E7000051
:1024C0007A0100201000002018000020474F0A0069
:1024D0003A000000200000002C0000002D00000049
:1024E00010B5FEF747FF01F059FF012803D0BDE802
:1024F000104001F0ADBD10BD10B590B02821684668
:10250000FDF785FE14210AA8FDF781FE0220009048
:102510000120049010200024059007946846FFF7DE
:10252000F9F800B1FEE70F20CDE90A040C940D94F0
:1025300000210AA80E94FFF701F8002800D0FEE75A
:1025400010B010BD0D48016841F001010160416803
:102550000B4A1140416001680A4A1140016001685C
:1025600021F480210160416821F4FE0141604FF4B3
:102570001F0181600449C0030860704700100240D9
:102580000000FFF8FFFFF6FE08ED00E0F0B502687E
:10259000164B174C174D4FF08047984205D0B84264
:1025A00003D0A04201D0A84203D122F070064A68AD
:1025B0003243984205D0B84203D0A04201D0A8428D
:1025C00003D122F44074CA6822434C6922F080028D
:1025D000224302608A68C2620A688262984201D11C
:1025E0000969016301214161F0BD0000002C014037
:1025F000000400400008004010B5846842EA03224D
:1026000024F47F440A432243826010BD826822F092
:1026100070020A4342F007018160704710B5036AF7
:10262000046A24F001040462846924F0F00444EA9A
:10263000021423F00A020A438461026210BD10B53D
:10264000036A23F0100303628369046A23F470436E
:1026500043EA023224F0A00343EA011182610162DD
:1026600010BD70B5446A2068406994F83910C0F311
:10267000C0100025212904D118B1E584204600F0BE
:1026800046F82068406994F83A10C0F38010222977
:1026900004D118B1E585204600F02BF8E06B40F03E
:1026A0001000E0632046FFF7A4FA70BD10B50146A4
:1026B000406A09680968890613D40021C185016848
:1026C000CA6822F48072CA6001684A6922F0010275
:1026D0004A6101684A6922F040024A61202180F87B
:1026E0003A10FFF723FB10BD10B5406AFFF738FB27
:1026F00010BD0168CA6822F49072CA6001684A6914
:1027000022F001024A61202180F83A1070470168E6
:10271000CA6822F0C002CA60202180F839107047D0
:102720002DE9F041044600680169E26821F4405156
:10273000114301612169A068084361690843216868
:10274000CA6841F20C639A430243CA602068416937
:10275000A26921F44071114341611E49206864253A
:102760003226884202D1FEF78FFF01E0FEF77CFFA0
:1027700000EBC00101EB001160686FF018078000EA
:10278000B1FBF0F2B2FBF5F2B1FBF0F37A4303EBED
:102790008202B1FBF0F306EB0212B2FBF5F2B3FBDF
:1027A000F5F302F0F00202EB0312B1FBF0F3B1FB20
:1027B000F0F0B0FBF5F0784303EB800006EB00107F
:1027C000B0FBF5F0216800F00F0010448860BDE810
:1027D000F0810000003801402DE9F041984617468D
:1027E0000E460446069D1DE0681C1BD02DB1FEF769
:1027F0009FFAA0EB0800A84214D92068C16821F410
:10280000D071C1602068416921F00101416120203F
:1028100084F8390084F83A00002084F83800032056
:10282000BDE8F0812068006836EA000004D000208E
:10283000B842D9D00020F3E70120F9E7FEE7000015
:102840000FB4084B10B504A902AA039800F0EEF8E3
:10285000044602A9002000F080FC204610BC5DF870
:1028600014FB00005B3100080907090E002804DB97
:1028700000F1E02080F80014704700F00F0000F134
:10288000E02080F8141D704702E008C8121F08C13C
:10289000002AFAD170477047002001E001C1121FE1
:1028A000002AFBD1704700002DE9FF5F82B00021B4
:1028B000DDE90430020DDDF840B0034318D044F6E2
:1028C0001050A2F2FF3242431514119801281FD074
:1028D000A5EB0B00401C5FEA000A4FF000064E4FCC
:1028E000DFF83891B046504615D5CAF1000413E020
:1028F000119801244AA3012801D16FEA0B01029823
:10290000119AC0E90031C0E9024206B0BDE8F09F6B
:10291000CBF10000DFE704460021404A491842EBB2
:102920000450CDE9001012E0E00707D032463B46E4
:1029300040464946FDF777FE8046894632463B468B
:1029400010461946FDF76FFE06460F466410002C30
:10295000EAD1DDE90401DDE90023BAF1000F06DA6E
:10296000FDF761FE42464B46FDF75DFE05E0FDF7D3
:1029700067FC42464B46FDF763FC04460E460022C8
:10298000284BFDF7DBFE03D84FF0FF30014607E090
:102990000022254B20463146FDF79EFDFDF7B5FE92
:1029A000102409E0002C0ADB0A220023FDF706FDB3
:1029B000039B30321A55641E50EA0102F2D1641CA6
:1029C000039AC4F111031444119A012A03D001227D
:1029D00008430DD10AE0084304D000204FF0110B4A
:1029E000119072E7A3EB0B056D1E0DE05B4504DD56
:1029F0004FF0000205F1010504E003DA4FF0000298
:102A0000A5F10105002AECD002981199C0E9023124
:102A1000C0E9004579E70000000014400000F03FE5
:102A2000300000000000F0430000E03F2DE9FF4FC0
:102A300095B09B468946064600250FE2252877D1AA
:102A400000242746F84A0121059400E0044316F8C3
:102A5000013F203B01FA03F01042F7D130782A28D9
:102A600011D06FF02F033078A0F13002092A16D868
:102A7000059A44F0020402EB820203EB4202104486
:102A8000761C0590EFE759F8042B0592002A03DA2B
:102A9000504244F40054059044F00204761C30780F
:102AA0002E2816D116F8010F44F004042A280DD060
:102AB0006FF02F023078A0F13003092B09D807EB13
:102AC000870302EB4303C718761CF3E759F8047B2E
:102AD000761C30786C280FD006DC4C2817D068287C
:102AE0000DD06A2814D104E0742810D07A280FD1B0
:102AF0000DE044F400140AE044F4801401E044F4CE
:102B000040147278824202D104F58014761C761C3F
:102B1000307866280BD013DC582877D009DC0028E1
:102B200075D04528F6D04628F4D047281AD19DE123
:102B300018E0632835D0642879D0652812D195E152
:102B4000702873D008DC6728F1D069286FD06E2810
:102B50000DD06F2806D1B5E073282CD0752875D01C
:102B6000782874D05A46179990476D1C75E1C4F3C4
:102B70000250022809D003280DD0D9F800100428EB
:102B80000DD00D6009F1040967E1D9F80010EA17CA
:102B9000C1E90052F6E7D9F800100D80F2E70D7098
:102BA000F0E719F8041B8DF8001000208DF80100E3
:102BB000EA46012003E059F804AB4FF0FF3061070B
:102BC0004FF0000102D40DE008F101018846B9423E
:102BD0000FDA8045F8DB1AF808100029F4D108E074
:102BE00008F1010188468142FADB1AF80810002931
:102BF000F6D105985B46A0EB080721463846179AA0
:102C000000F094FA284400EB080507E04DE029E1C4
:102C10000DE01AF8010B5A4617999047B8F10108D0
:102C2000F7D25B4621463846179A13E142E00A2262
:102C30000092C4F302524FF0000A022A08D059F859
:102C400004CB032A4FEAEC710AD00DE029E02AE018
:102C500009F1070121F00702F2E802C1914609E0FB
:102C60000FFA8CFC4FEAEC71042A03D14FFA8CFC6A
:102C70004FEAEC71002907DA0A460021DCF1000C6A
:102C800061EB02012D2202E0220504D52B228DF8F2
:102C90000420012203E0E20701D02022F7E790465A
:102CA00059E00A2102E010220DE010214FF0000A45
:102CB00000910BE010224FF0000A44F004040827B2
:102CC000009203E008224FF0000A0092C4F302527F
:102CD000022A05D059F804CB0021032A08D009E0C4
:102CE00009F1070121F00702F2E802C1914605E06F
:102CF0001FFA8CFC042A01D10CF0FF0C4FF00008E5
:102D0000220728D5702806D0009B83F0100353EAD1
:102D10000A0305D00EE040228DF80420012208E0CD
:102D20005CEA010206D030228DF804208DF80500FF
:102D300002229046009B83F0080353EA0A030AD15B
:102D40005CEA010201D1620705D530228DF804202A
:102D50004FF001087F1E582804D034A003900EA81D
:102D600002900DE036A0F9E753466046009AFDF761
:102D700025FB84460398825C0298401E02900270F4
:102D80005CEA0100F0D1029806A9081A00F1200AB5
:102D9000600702D524F4803400E00127574502DDA6
:102DA000A7EB0A0000E0002000EB0A010090059864
:102DB0004144401A0590E00306D45B462146179A29
:102DC000059800F0B3F90544002706E001A85A462B
:102DD000C05D179990476D1C7F1C4745F6DBE003EB
:102DE0000CD55B462146179A059800F09FF90544DB
:102DF00004E030205A46179990476D1C0099481EF0
:102E000000900029F5DC08E0029802995A46007803
:102E1000491C0291179990476D1CBAF10001AAF163
:102E2000010AF1DC65E1000009280100303132338C
:102E300034353637383961626364656600000000F6
:102E400030313233343536373839414243444546E0
:102E50000000000000F058F90544761C3078002886
:102E60007FF4ECAD19B02846BDE8F08F620700D4BE
:102E7000062709F1070222F0070CFCE80223E146CD
:102E800003F000485FEA080C02D00FF2702C0DE04E
:102E90005FEA045C02D50FF2682C07E05FEAC47CAD
:102EA00002D00FF2602C01E0AFF2700C4FF0FF384F
:102EB00023F00043CDF850C065280CD006DC45282F
:102EC00009D046281DD047283DD13DE0662818D0BE
:102ED00067287ED138E00021112F01DB112000E0AE
:102EE000781CCDE9000106A90EA8FFF7DDFCDDE99D
:102EF0000F010E9A03910021009207F1010A04913B
:102F00004DE04FF000400097CDE9011006A90EA852
:102F1000FFF7CAFCDDE90F0203920E9B1199002214
:102F2000DDF80CA00093049211B9791C00EB010AA2
:102F3000B7EB0A0004D4C0F1FF3007F1010A049096
:102F4000AAEB0700019044E0012F00DA01270021DD
:102F5000112F01DD112000E03846CDE9000106A95E
:102F60000EA8FFF7A1FCDDE90F010E9A03910021E5
:102F700004910092BA4621070CD40399514500DA16
:102F80008A46BAF1010F05DD009AAAF10101515CF0
:102F9000302908D0B84202DA10F1040F06DA012114
:102FA000CDE9011015E0AAF10101E9E7002805DCEF
:102FB000049901440491AAEB000102E0411C51452F
:102FC00000DD8A460499401A401C01904FF00040F1
:102FD0000290200704D40198504501DBCDF804800D
:102FE00000208DF84F0002980DF14F07B0F1004F0F
:102FF00025D02B200E9002984FF0020800280CDA02
:10300000404202902D200E9007E00A210298FDF721
:10301000BFF93031029007F8011DB8F10001A8F1A5
:103020000108F2DC02980028EFD1791E0E98087092
:10303000307800F0200040F0450007F8020D12A89B
:10304000C01B00F107081498007800B1012000EBC4
:103050000A01019801EBE07105984144401A401EB5
:103060000590E00306D45B462146179A059800F0C8
:103070005DF805441498007818B15A46179990479E
:103080006D1CE00324D55B462146179A059800F095
:103090004DF805441CE00498002807DBDDE9030136
:1030A000884203DD0098405C179901E017993020B1
:1030B0005A469047049805F10105401C0490019878
:1030C000401E019004D12E205A46179990476D1C3E
:1030D000BAF10001AAF1010ADDDC05E017F8010BE5
:1030E0005A46179990476D1CB8F10001A8F10108E4
:1030F000F4DC5B462146179A0598ABE62D000000EC
:103100002B000000200000002DE9F04104460025BE
:103110001E461746880404D405E039462020B047EF
:103120006D1C641EF9D52846BDE8F0812DE9F041FB
:10313000044600251E469046C80301D5302700E00E
:103140002027880404D505E041463846B0476D1C69
:10315000641EF9D52846BDE8F0810A68531C0B604F
:1031600010707047027802F00F03C2F3021202EBF4
:10317000820203EB42020A70427802F00F03C2F3AC
:10318000021202EB820203EB42024A708278C2F31F
:10319000801313B1C2F3001301E0C2F3011302F074
:1031A0000F0203EB830302EB43028A70C27802F042
:1031B00007020A71027902F00F03C2F3011202EB57
:1031C000820203EB42024A71427902F00F03C2F31A
:1031D000001202EB820203EB42028A71837903F050
:1031E0000F021B0903EB830302EB4302CA7102784F
:1031F000D2090A72C279D2094A72C279C2F30012A4
:103200008A72C279C2F34002CA72C07900F001002A
:103210000873704710B5002821D0114B0022001F01
:10322000196803E0814203D80A4649680029F9D1A8
:1032300052B11368841A9C4204D10068184410608B
:10324000104602E0506000E0186039B102680B1AC5
:10325000934203D10B681A4402604968416010BD73
:10326000940000207FB5054600F0E8FB044669465F
:10327000FFF778FF2046FFF7CDFF0D22694628466D
:10328000FCF7ACFF7FBDF0B56E2554277522652491
:10329000532361264FF0740C082923D2DFE801F094
:1032A0002204090D1217221E4D2101706F21417059
:1032B00016E0077042708470F0BD572101704470B1
:1032C000642109E00770682141708270F0BD4621D9
:1032D00001707221417069218170F0BD03704270EC
:1032E0008570F0BD0370467080F802C0F0BD00002C
:1032F00086B0FEF747F8FFF7FFF8FEF79DFF2D4871
:10330000416941F0010141614069002200F0010082
:10331000059005210F20FEF7DFF80F20FEF7CFF80C
:1033200026482549002401602549C0E901144FF4CD
:103330008041C0E9034144618461C4610462FDF7D6
:10334000FDFC00B1FEE71D481E49943000220160DB
:103350004FF41651C0E901140C21C460C0E90441C6
:1033600084611146C461FEF763F800B1FEE7FEF721
:10337000AFFF12490A22D431A1F14000FEF78AFCC6
:10338000FDF77CFA00F096FBFDF724FA012000F02F
:1033900075FE0D4C606060B114220C496846FCF764
:1033A0001DFF0021684600F05BF8206000F053F834
:1033B000FEE7FEE700100240005400409C000020A1
:1033C000A08601000038014000000020504600089F
:1033D00001460020842900D0C81C7047F0B50B308E
:1033E000154D20F007010024144A0FE003688B42BA
:1033F0000BD38B4205D95E1A43184768C3E90067AF
:1034000000E04368136002C004E0021D1068002859
:10341000ECD12046002802D1286808B10020F0BD78
:10342000064A07481060074A121A22F00702C0E94C
:10343000002401202860D7E7980000209400002095
:103440000C1300200815002010B500B9012000F071
:10345000F5FC002010BD10B500F03CFD002010BDB3
:103460003EB504460D46B0F90800FFF7B1FF02A9CA
:10347000CDE90001208A2B4682B2D4E9001000F089
:1034800061FF012801D000203EBD02983EBD000032
:1034900030B589B00446007800906378A2780FA117
:1034A00001A8FFF7CDF982B24FF47A752B4601A936
:1034B0000E48FEF756FC207903280DD2DFE800F015
:1034C0000C0206002B46082209A102E02B46092225
:1034D0000AA10648FEF745FC09B030BD2532643A22
:1034E0002532643A2532640A0D00000030010020C4
:1034F0004D6F6E6461790A0D0000000054756573AC
:103500006461790A0D0000002DE9F041184C0F4666
:10351000054666692068001D00F0D6FB38B92068B2
:1035200090F82C1001208840A1698143A161681C9A
:1035300007D137B12168BDE8F0410E48091D00F000
:10354000FCBB20683544B5424560216805D2A068BF
:10355000BDE8F041091D00F0D8BB6068091D00F00E
:10356000D4FB206B854200D22563BDE8F0810000CA
:1035700034000020F40600202DE9F041054600F05B
:10358000E9FB2E4C2069401C206120682C4F10B1B3
:10359000E06940B32DE025602069012829D100268B
:1035A00006EB860007EB800000F0A1FB761C072EDF
:1035B000F6D323488C3000F09AFB2148A03000F06D
:1035C00096FB1F48B43000F092FB1D48C83000F055
:1035D0008EFB1B48DC3000F08AFB19488C306060A1
:1035E0001430A06005E02068E96AC06A884200D80B
:1035F0002560E06A401CE062E96A0120A269884017
:103600001043A06101EB810007EB8000291D00F051
:1036100094FB00F0BFFBE06900280CD02068E96A49
:10362000C06A884207D207494FF080500860BFF354
:103630004F8FBFF36F8FBDE8F08100003400002092
:103640001806002004ED00E02DE9F041856B1746D7
:1036500004460026026C82B1C7B1E068FCF7BEFDEB
:10366000E168206C091AE1602268914202D2616827
:10367000081AE060022F16D017E02068A8B9606829
:1036800000F0FEFE0646002060600EE0A068FCF739
:10369000A5FD216CA0680844A0606168884204D33D
:1036A0002068A06001E005B16D1E6D1CA563304669
:1036B000BDE8F08110B50446006B00F07FFB2046AA
:1036C000BDE8104000F07ABB10484FF4406142075B
:1036D00006D0C01D0D4920F00700411AC1F5406118
:1036E0000B4A00230144C2E900030839103A21F0D3
:1036F000070111604B600B600B1AC0E90013936067
:103700004FF000405360D060704700000807002071
:1037100080000020144E154CA6F1C8074FF08058C9
:10372000DFF84C9012E000BF00F014FBF068C568B1
:10373000281D00F0C9FA2069401E2061E068401E83
:10374000E06000F027FB2846FFF7B4FFE0680028A0
:10375000EAD138680128F9D9C9F80080BFF34F8F42
:10376000BFF36F8FF2E70000E00600203400002076
:1037700004ED00E02DE9F0479A46DDE90984814631
:103780006FF00303206B03EB82021044089D20F0CE
:103790000706700707D0502080F31188BFF34F8FC2
:1037A000BFF36F8FFEE723180A5C83F834200A5CAE
:1037B00012B1401C1028F6D3002784F84370072D5F
:1037C00000D30625E562C4E91157201D00F09AFADE
:1037D00004F1180000F096FA2461C5F10700646254
:1037E000A061E76484F8507052464946304600F0C4
:1037F000F5F82060B8F1000F01D0C8F80040BDE82E
:10380000F087000030B5114900E011460A68824295
:10381000FBD34B685C18844203D14068184448606D
:10382000084643681C18944209D1084C103C24688F
:10383000A24209D052681A4442600A6812680260C3
:10384000814200D0086030BD0460F9E780000020AC
:1038500006484168096829B14168C968C96849686A
:10386000016370474FF0FF31FAE700003400002099
:1038700008484068401C4FF0500080F3118804D085
:10388000BFF34F8FBFF36F8FFEE7BFF34F8FBFF3D1
:103890006F8FFEE7880000202DE9F041044600F01C
:1038A00059FA94F9455004F1240609E0606A48B1D8
:1038B000304600F031FE08B100F0EEFA6D1E6DB238
:1038C000002DF3DC4FF0FF3684F8456000F062FA1B
:1038D00000F040FA94F9445004F1100709E020691F
:1038E00048B1384600F018FE08B100F0D5FA6D1E58
:1038F0006DB2002DF3DC84F84460BDE8F04100F0C7
:1039000049BA00002DE9F0410546002700F016FBFA
:10391000314E306808B9FFF7D7FEF06805424BD149
:10392000C5B3083568070ED005F00700C0F10800E0
:103930000544680707D0502080F31188BFF34F8FEC
:10394000BFF36F8FFEE72DB37068854234D82248ED
:10395000103001460C6801E020460C466168A9421F
:1039600002D221680029F7D131688C4224D007683F
:103970002168016060680837411B10290FD9601960
:10398000420708D0502080F31188BFF34F8FBFF358
:103990006F8FFEE710E041606560FFF733FF6168FD
:1039A0007068401A7060B268904200D2B060F068EF
:1039B00001430020C4E9000100F0E8FD780707D0CA
:1039C000502080F31188BFF34F8FBFF36F8FFEE756
:1039D0003846BDE8F08100007000002010B5031FDC
:1039E0004FF080741C601B1F21F001011960191F2A
:1039F000024B0B60143940380A6010BD7138000862
:103A00007CB50D4601212846FCF70CFC044600203D
:103A10008DF804006426012301AAD02106480096EF
:103A2000FDF74CFB2B462246D02103480096FDF7BC
:103A30003FFA20467CBD00009C00002010B501210B
:103A40000820FCF7EFFB0022BDE8104008211046DB
:103A5000FFF7D6BF70B5802813D2402911D20B4B87
:103A6000012401F007051E79AC40094BC90800EBA1
:103A7000C1100EB132B101E0012A03D0195CA1439B
:103A8000195470BD195C2143FAE7000008000020BA
:103A90001802002010B5064A00214FF4806328B1B7
:103AA000FF245454491C9942F9D310BD0024F8E76F
:103AB0001802002010B56420FDF72CF8AE2000F0AD
:103AC000DBF8202000F0D8F8102000F0D5F8B02066
:103AD00000F0D2F8C82000F0CFF8002000F0CCF8B9
:103AE000102000F0C9F8402000F0C6F8812000F056
:103AF000C3F8FF2000F0C0F8A12000F0BDF8A62018
:103B000000F0BAF8A82000F0B7F83F2000F0B4F8B1
:103B1000A42000F0B1F8D32000F0AEF8002000F0AF
:103B2000ABF8D52000F0A8F8F02000F0A5F8D920D7
:103B300000F0A2F8222000F09FF8DA2000F09CF8B4
:103B4000122000F099F8DB2000F096F8202000F019
:103B500093F88D2000F090F8142000F08DF8AF203D
:103B600000F08AF80020FFF795FF00F011F80448F4
:103B700000210180418001214171084610BD0000F3
:103B800008000020014A1080518070470800002082
:103B9000FEB5002464250F4F802600BF04F1B0005D
:103BA000C0B200F069F8002000F066F8102000F0C4
:103BB00063F807EBC410CDE9000601234022782109
:103BC00002950548FDF710FB641CE4B2082CE5D310
:103BD000FEBD0000180200209C0000202DE9FF4FD0
:103BE000834624489246CEB202883244802A06D2C6
:103BF00081464088C1F307273844402803D300207A
:103C000004B0BDE8F08F002528E000BFABF1200034
:103C100000FB075000243AF810801CE008FA04F07A
:103C2000000409D599F8021099F8000029442044AD
:103C3000C9B2C0B2039A0BE00398C0B15FF00002B2
:103C400099F8021099F8000029442044C9B2C0B282
:103C5000FFF700FF641CA642E0D86D1CAF42D5D828
:103C6000B9F8001058463144A9F80010C8E70122FD
:103C7000E6E700000800002001B584B001210A2217
:103C800004A88DE807000B46002278210248FDF7C2
:103C9000ABFA05B000BD00009C000020F0B51D4649
:103CA0000E46174604460AE02B463A463146FFF7D1
:103CB00095FF2178884201D0C8B2F0BD641C2078FD
:103CC0000028F1D1C0B2F0BDD0E9013201699A609B
:103CD000D0E901235A604A68824201D182684A6071
:103CE000002202610868401E08600868704700F101
:103CF00008014FF0FF32C0E90112C16001610021EB
:103D00000160704700210161704730B50B685A1C93
:103D100002D000F1080202E0026904E02246546881
:103D200025689D42FAD953684B6099608A6051605A
:103D300008610168491C016030BD42684A609368AF
:103D40008B6093685960916008610168491C01604B
:103D500070470000502080F31188BFF34F8FBFF3EE
:103D60006F8F0A494868401C486001280CD10848F8
:103D7000006810F0FF0F07D0502080F31188BFF3C8
:103D80004F8FBFF36F8FFEE7704700008800002061
:103D900004ED00E00849486828B1401E486001D1A0
:103DA00080F311887047502080F31188BFF34F8F44
:103DB000BFF36F8FFEE700008800002070B5002879
:103DC00027D0144DA0F108046168E868014207D1CA
:103DD000502080F31188BFF34F8FBFF36F8FFEE742
:103DE00022683AB1502080F31188BFF34F8FBFF3A0
:103DF0006F8FFEE78143616000F0A0F8606869683A
:103E0000084468602046FFF7FDFCBDE8704000F004
:103E1000BDBB70BD700000204FF0E02000210161AB
:103E2000816105494FF47A720968B1FBF2F1491ECC
:103E300041610721016170473000002010B5020088
:103E400014D00F48806B38B1502080F31188BFF335
:103E50004F8FBFF36F8FFEE700F070F80021104620
:103E6000FFF752FB00F092FB002807D105494FF005
:103E700080500860BFF34F8FBFF36F8F10BD0000FD
:103E80003400002004ED00E002498A6A02604969BA
:103E900041607047340000200149012048627047AA
:103EA0003400002010B50C4650B10949096818319A
:103EB000FFF72BFF2046BDE810400121FFF724BB90
:103EC000502080F31188BFF34F8FBFF36F8FFEE751
:103ED000340000201CB515480024CDE900402346DD
:103EE000802213A1144800F02DFA012809D0401CAB
:103EF0001AD1502080F31188BFF34F8FBFF36F8F1B
:103F0000FEE7502080F31188BFF34F8FBFF36F8F10
:103F100006484FF0FF31343801630121C16144612B
:103F2000BDE81C4000F040B81CBD00006800002047
:103F300049444C4500000000153700080248816BD9
:103F4000491C816370470000340000201448816BD5
:103F500011B1012141627047002141628169B1FACA
:103F600081F1C1F11F0101EB81020E4951F82230AC
:103F70006BB101EB820101F108034A6852684A60A3
:103F80009A4201D152684A60D1680160704750205E
:103F900080F31188BFF34F8FBFF36F8FFEE70000F0
:103FA00034000020180600201CB52649087801902E
:103FB000FF20087008788DF800009DF800009DF83B
:103FC000002000F0F000904207D0502080F31188CC
:103FD000BFF34F8FBFF36F8FFEE79DF800001A4BC2
:103FE00000F0500018700720986005E09DF8002050
:103FF00052008DF80020401E9DF800201206F5D4D6
:104000009860032807D0502080F31188BFF34F8FAA
:10401000BFF36F8FFEE74FF440709860019808700F
:104020000A48016841F470010160016841F0704183
:104030000160FFF7F1FE00205860FCF773F80020E4
:104040001CBD000000E400E08800002020ED00E03E
:1040500010B5502080F31188BFF34F8FBFF36F8FDF
:1040600000F0AAF918B104494FF080500860002010
:1040700080F3118810BD000004ED00E010B5024689
:104080000021012000F00CF8041E07D0002141603F
:1040900001600B460A46C16000F06AF8204610BD78
:1040A00070B50E46050013D0D6B105FB06F04830BA
:1040B000FFF728FC040009D004F1480120468EB126
:1040C0000160C0E90F56012100F00EF8204670BDD6
:1040D000502080F31188BFF34F8FBFF36F8FFEE73F
:1040E0000020E4E70060ECE770B50D46040025D041
:1040F000FFF730FED4E90F20216802FB0011616058
:104100000021A1632168A1600A46D4E90F01401E85
:1041100000FB0121E16021464FF0FF3001F8440F20
:10412000487004F110008DB1FFF7E1FD04F12400A7
:10413000FFF7DDFDFFF72EFE012070BD502080F35C
:104140001188BFF34F8FBFF36F8FFEE721690029FE
:10415000F0D000F0E1F90028ECD004494FF0805095
:104160000860BFF34F8FBFF36F8FE3E704ED00E00C
:104170002DE9FF4782B01D468A464FF00008040033
:1041800003D0BAF1000F08D011E0502080F311885D
:10419000BFF34F8FBFF36F8FFEE7206C38B1502015
:1041A00080F31188BFF34F8FBFF36F8FFEE7022DAF
:1041B0000AD1E06B012807D0502080F31188BFF3AB
:1041C0004F8FBFF36F8FFEE700F0E8F83F4F4FF0DF
:1041D00000094FF0805648B9049838B1502080F358
:1041E0001188BFF34F8FBFF36F8FFEE7FFF7B2FD6C
:1041F000A06BE16B884207D3022D05D00498D0B1A3
:10420000B8F1000F1AD01EE02A4651462046FFF7AB
:104210001BFA616A19B104F1240000F07DF920B1A4
:104220003E60BFF34F8FBFF36F8FFFF7B3FD0120E9
:1042300006B0BDE8F087FFF7ADFD22E06846FFF766
:1042400023FE4FF00108FFF7A5FDFFF777FEFFF70C
:1042500081FD94F94400401C01D184F8449094F904
:104260004500401C01D184F84590FFF793FD04A957
:10427000684600F02DF830B12046FFF70DFB00F046
:1042800085F90020D4E7FFF765FDA06BE16B88425C
:1042900013D1FFF77FFD04F110000499FFF702FE30
:1042A0002046FFF7F9FA00F071F900289ED13E6030
:1042B000BFF34F8FBFF36F8F98E7FFF76BFD20467B
:1042C000FFF7EAFA00F062F990E7000004ED00E081
:1042D0002DE9F0410C46050011D0C4B1FFF73AFDBD
:1042E000174B5A696E682068911B471C17D02F68BE
:1042F0009B6A9F4219D0964217D8012410E05020A3
:1043000080F31188BFF34F8FBFF36F8FFEE750200C
:1043100080F31188BFF34F8FBFF36F8FFEE7002448
:10432000FFF738FD2046BDE8F081884205D9401AE4
:1043300020602846FFF7A8FDF1E700202060DCE7B9
:10434000340000202DE9FF5F8346DDE90E879946A2
:1043500016468A469000FFF7D5FA05001AD0542079
:10436000FFF7D0FA040012D025630021CDE9024105
:10437000CDE900874B46324651465846FFF7FAF9D9
:104380002046FFF7F9F8012004B0BDE8F09F284669
:10439000FFF714FD4FF0FF30F6E700000548C16954
:1043A00019B1806B18B100207047012070470220BE
:1043B00070470000340000202DE9F0412E4C00270A
:1043C000A06B40B1206A401C2062606A00B10127E6
:1043D0003846BDE8F0816669761C666113D1606875
:1043E000006838B1502080F31188BFF34F8FBFF3BE
:1043F0006F8FFEE76068A1686160A060A06A401CE2
:10440000A062FFF725FA206BDFF87080864209D39F
:104410006068006880B16068C068C5686868864286
:104420000DD220632068C06A00EB800158F821009B
:104430000128CAD90127C8E74FF0FF30F1E7281D4E
:10444000FFF742FCA86A18B105F11800FFF73CFC21
:10445000E86A0121A26981401143A16100EB80015A
:1044600008EB8100291DFFF768FCE86A2168C96A2A
:104470008842CDD30127CBE7340000201806002066
:1044800070B504004FF0000140D0214D28688442EF
:1044900007D0502080F31188BFF34F8FBFF36F8F89
:1044A000FEE7A06C38B1401EA064636CE26A9A42D9
:1044B0002CD040B12AE0502080F31188BFF34F8FF9
:1044C000BFF36F8FFEE7201DFFF7FEFB114A0121AE
:1044D00050B9E06A00EB800352F8233023B9AB698E
:1044E00001FA00F08343AB61606CE062C0F1070049
:1044F000A061E06AAB6981401943A96100EB8000CB
:1045000002EB8000211DFFF718FC0121084670BD59
:1045100034000020180600202DE9F041C068C4686E
:10452000ACB104F118000746FFF7CEFB154DA86BA0
:104530000126A0B139461448FFF7FFFBE06A29685D
:10454000C96A88421CD901206E62BDE8F081502002
:1045500080F31188BFF34F8FBFF36F8FFEE7201DED
:10456000FFF7B2FBE16AAA6906FA01F01043A861FD
:1045700001EB81000449B43901EB8000211DDBE728
:104580000020E2E734000020CC0600202DE9F047AF
:104590002C4D00242746A86B38B1FFF7DBFBA86B36
:1045A000401EA863A86B40B146E0502080F31188FC
:1045B000BFF34F8FBFF36F8FFEE72969224E0120B3
:1045C000D1B3A6F1B40980463068E8B1F068C46898
:1045D00004F11800FFF778FB201DFFF775FBE06A78
:1045E000AA6908FA00F11143A96100EB800109EB07
:1045F0008100211DFFF7A1FBE06A2968C96A884292
:10460000E2D3C5F82480DFE70CB1FFF721F92C6A6B
:1046100044B14646FFF7D0FE00B16E62641EF9D188
:1046200000202862686A38B1084901273807086005
:10463000BFF34F8FBFF36F8FFFF7ACFB3846BDE87A
:10464000F087000034000020CC06002004ED00E0DC
:10465000445B000851230008000000000000000037
:1046600080000000000000000000000000000000CA
:1046700000000000000000000010001000100010FA
:1046800000100010000000100000000000280028AA
:1046900000280000000000000000000000000000F2
:1046A00000240024007C00240048007C00480048CE
:1046B000000000000038005400500038001400547E
:1046C0000054003800100000002000540058003052
:1046D000002800540014000800000000001000280A
:1046E000002800100034004800480034000000009A
:1046F000001000100010000000000000000000008A
:104700000000000000080010002000200020002011
:104710000020002000100008002000100008000801
:1047200000080008000800080010002000100038F1
:104730000010002800000000000000000000000041
:104740000000000000100010007C001000100000AD
:104750000000000000000000000000000000000059
:104760000000001000100010000000000000000019
:104770000000003800000000000000000000000001
:104780000000000000000000000000100000000019
:104790000008000800100010001000100020002089
:1047A000000000000038004400440054004400446D
:1047B00000440038000000000010003000500010DD
:1047C000001000100010001000000000003800442D
:1047D00000440004000800100020007C00000000DD
:1047E00000380044000400180004000400440038AD
:1047F0000000000000080018002800280048007C85
:104800000008000800000000007C00400040007824
:104810000004000400440038000000000038004498
:1048200000400078004400440044003800000000CC
:10483000007C000400080010001000200020002070
:1048400000000000003800440044003800440044E8
:1048500000440038000000000038004400440044D8
:10486000003C00040044003800000000000000008C
:104870000010000000000000000000100000000018
:104880000000000000000010000000000000001008
:104890000010001000000000000C0030004000304C
:1048A000000C000000000000000000000000007C80
:1048B0000000007C0000000000000000000000007C
:1048C00000600018000400180060000000000000F4
:1048D0000038004400040008001000100000001020
:1048E0000000000000380044004C0054005C004010
:1048F00000400038000000000010002800280028B8
:104900000028007C004400440000000000780044BF
:104910000044007800440044004400780000000097
:10492000003800440040004000400040004400388F
:1049300000000000007000480044004400440044AF
:104940000048007000000000007C00400040007C37
:10495000004000400040007C00000000007C00405F
:10496000004000780040004000400040000000008F
:104970000038004400400040005C0044004400381F
:1049800000000000004400440044007C0044004457
:104990000044004400000000003800100010001027
:1049A0000010001000100038000000000004000497
:1049B000000400040004000400440038000000006B
:1049C0000044004800500060005000480048004487
:1049D0000000000000400040004000400040004057
:1049E0000040007C000000000044006C006C00549B
:1049F00000440044004400440000000000440064FF
:104A0000006400540054004C004C004400000000BE
:104A1000003800440044004400440044004400388E
:104A2000000000000078004400440044007800408A
:104A300000400040000000000038004400440044F2
:104A40000044004400540038000400000078004492
:104A50000044004400780048004800440000000082
:104A600000380044004000300008000400440038D2
:104A700000000000007C001000100010001000106A
:104A800000100010000000000044004400440044F6
:104A9000004400440044003800000000004400448A
:104AA000004400280028002800100010000000002A
:104AB00000440044005400540054006C00280028B6
:104AC000000000000044002800280010001000280A
:104AD0000028004400000000004400440028002892
:104AE000001000100010001000000000007C000406
:104AF00000080010001000200040007C00000000B2
:104B0000001800100010001000100010001000101D
:104B100000100018002000200010001000100010ED
:104B20000008000800000000003000100010001015
:104B300000100010001000100010003000100028BD
:104B400000280044000000000000000000000000F9
:104B50000000000000000000000000000000000055
:104B6000000000FE00200010000000000000000017
:104B700000000000000000000000000000380044B9
:104B8000003C0044004C00340000000000400040A5
:104B90000058006400440044006400580000000015
:104BA000000000000038004400400040004400388D
:104BB00000000000000400040034004C00440044E5
:104BC000004C0034000000000000000000380044E9
:104BD000007C00400044003800000000000C001081
:104BE000007C0010001000100010001000000000F9
:104BF000000000000034004C00440044004C00342D
:104C00000004007800400040005800640044004464
:104C1000004400440000000000100000007000107C
:104C20000010001000100010000000000010000034
:104C3000007000100010001000100010001000E0C4
:104C40000040004000480050006000500048004410
:104C50000000000000700010001000100010001094
:104C60000010001000000000000000000078005458
:104C700000540054005400540000000000000000E4
:104C80000058006400440044004400440000000058
:104C90000000000000380044004400440044003894
:104CA00000000000000000000058006400440044C0
:104CB0000064005800400040000000000034004C38
:104CC00000440044004C00340004000400000000D4
:104CD0000058006400400040004000400000000018
:104CE0000000000000380044003000080044003894
:104CF000000000000020002000780020002000209C
:104D000000200018000000000000000000440044E3
:104D100000440044004C003400000000000000008B
:104D20000044004400280028002800100000000073
:104D300000000000005400540054006C00280028BB
:104D400000000000000000000044002800100010D7
:104D5000002800440000000000000000004400445F
:104D60000028002800100010001000600000000063
:104D7000007C0008001000200040007C00000000C3
:104D8000001800100010001000200020001000107B
:104D9000001000180010001000100010001000108B
:104DA0000010001000100010003000100010001063
:104DB0000008000800100010001000300000000083
:104DC00000000074004C0000000000000000000023
:104DD00000000000000000000000000000000000D3
:104DE00000000000000000000000000000000000C3
:104DF000000000000000000C000C000C000C000C77
:104E0000000C000C000C000C000C000C0000000C4E
:104E1000000C0000000000000000001B001B001B35
:104E2000001B001B0000000000000000000000004C
:104E300000000000000000000000000000008019D9
:104E4000801980198019C07FC07F80190033C07F0E
:104E5000C07F003300330033003300000000000047
:104E60000000001E003F807580650074003C001E3D
:104E700000078005806580658075003F001E000486
:104E8000000400000000007000D840D8C0D880D9CD
:104E900000730006000C801BC036C066C046C0060A
:104EA00080030000000000000000001E003F0033EF
:104EB00000330033001E000CC03CC066806380617C
:104EC0008063C03E801C0000000000000000000C59
:104ED000000C000C000C000C0000000000000000A2
:104EE00000000000000000000000000000000000C2
:104EF000800000010003000600060004000C000C06
:104F0000000C000C000C000C00040006000600035E
:104F100000018000002000100018000C000C0004AC
:104F20000006000600060006000600060004000C4D
:104F3000000C0018001000200000000C002D003FA5
:104F4000001E003300000000000000000000000010
:104F50000000000000000000000000000000000051
:104F60000000000C000C000C000CC0FFC0FF000C87
:104F7000000C000C000C000000000000000000000D
:104F80000000000000000000000000000000000021
:104F900000000000000000000000000C000C0004F5
:104FA00000040008000000000000000000000000F5
:104FB000000000000000001E001E000000000000B5
:104FC00000000000000000000000000000000000E1
:104FD00000000000000000000000000000000000D1
:104FE0000000000C000C00000000000000000003A6
:104FF000000300030006000600060006000C000C7B
:10500000000C000C00180018001800000000000040
:105010000000001E003F0033806180618061806D70
:10502000806D8061806180610033003F001E000060
:105030000000000000000006000E001E00360026E2
:105040000006000600060006000600060006000630
:1050500000060000000000000000001E003F8073FA
:1050600080618061800100030006000C00180030A0
:105070000060807F807F0000000000000000001CB6
:10508000003E006300630003000E000E0003800179
:10509000800180618073003F001E0000000000005E
:1050A00000000006000E000E001E001E0016003656
:1050B00000360066807F807F000600060006000044
:1050C000000000000000007F007F006000600060C2
:1050D000006E007F80638001800180618073003FEB
:1050E000001E0000000000000000001E003F803392
:1050F00080610060006E007F8073806180618061EC
:105100008033003F001E0000000000000000807F90
:10511000807F80010003000300060006000C000CE5
:10512000000C000800180018001800000000000023
:105130000000001E003F8063806180610021001E2E
:10514000003F8061806180618061003F001E00003F
:10515000000000000000001E003F007380618061BD
:1051600080618073803F801D800180610073003FFB
:10517000001E000000000000000000000000000011
:105180000000000C000C0000000000000000000007
:105190000000000C000C00000000000000000000F7
:1051A0000000000000000000000C000C00000000E7
:1051B000000000000000000C000C000400040008C7
:1051C000000000000000000080008003000E003896
:1051D00000600038000E8003800000000000000026
:1051E0000000000000000000000000000000807FC0
:1051F000807F00000000807F807F000000000000B2
:10520000000000000000000000000000000000009E
:1052100000400070001C000780010007001C0070A7
:105220000040000000000000000000000000001F1F
:10523000803FC071C060C000C00180030007000E45
:10524000000C000C0000000C000C0000000000002E
:105250000000001E003F803180718063806F806D90
:10526000806D806F806700600032003E001C00008F
:10527000000000000000000E000E001B001B001BC1
:10528000001B80318031803F803F8031C060C06032
:10529000C0600000000000000000007C007E006391
:1052A000006300630063007E007E006380618061B4
:1052B0008063007F007E0000000000000000001EF0
:1052C000003F80318061006000600060006000602D
:1052D000006080618031003F001E0000000000007F
:1052E0000000007C007F00638063806180618061DA
:1052F00080618061806100630063007E007C00004B
:10530000000000000000807F807F0060006000607F
:105310000060007F007F0060006000600060807FB0
:10532000807F0000000000000000807F807F006020
:10533000006000600060007F007F0060006000602F
:105340000060006000600000000000000000001E1F
:10535000003F803180610060006000608063806396
:10536000806180618031803F001E000000000000ED
:105370000000806180618061806180618061807FE8
:10538000807F8061806180618061806180610000D8
:10539000000000000000003F003F000C000C000C6B
:1053A000000C000C000C000C000C000C000C003F6A
:1053B000003F00000000000000008001800180012B
:1053C0008001800180018001800180018061806115
:1053D0008073003F001E0000000000000000C0605D
:1053E0008061006300660066006C0078007C0066E7
:1053F0000066006380618061C06000000000000002
:1054000000000060006000600060006000600060FC
:1054100000600060006000600060807F807F0000AE
:10542000000000000000C071C071C07BC07AC06A7B
:10543000C06AC06EC064C060C060C060C060C06050
:10544000C060000000000000000080718071807961
:1054500080798079806D806D806D806580678067E0
:105460008067806380630000000000000000001E71
:10547000003F003380618061806180618061806174
:10548000806180610033003F001E000000000000CA
:105490000000007E007F80638061806180618063A6
:1054A000007F007E0060006000600060006000001F
:1054B000000000000000001E003F0033806180619A
:1054C0008061806180618061806580670033803F9A
:1054D000401E0000000000000000007E007F80638E
:1054E000806180618063007F007E006600630063EE
:1054F00080618061C0600000000000000000000EBC
:10550000001F8031803100300038001E000780030A
:10551000806180618031003F001E000000000000BB
:105520000000C0FFC0FF000C000C000C000C000CC1
:10553000000C000C000C000C000C000C000C000017
:1055400000000000000080618061806180618061F6
:105550008061806180618061806180618073003FD3
:10556000001E0000000000000000C060C060C060BD
:10557000803180318031001B001B001B001B000E9E
:10558000000E000E00040000000000000000C0C07B
:10559000C0C0C0C0C0C0C0C0C0CC804C804C805E09
:1055A00080528052807380618061000000000000A2
:1055B0000000C0C0806080610033003B001E000C12
:1055C000000C001E001F003B80718061C0C0000005
:1055D000000000000000C0C0806180610033003323
:1055E000001E001E000C000C000C000C000C000C37
:1055F000000C0000000000000000803F803F8001A0
:10560000000300030006000C000C00180018003016
:105610000060807F807F000000000000000F000F0E
:10562000000C000C000C000C000C000C000C000C1A
:10563000000C000C000C000C000C000C000F000F04
:105640000000001800180018000C000C000C000CE2
:105650000006000600060006000300030003000029
:1056600000000000001E001E0006000600060006E6
:1056700000060006000600060006000600060006FA
:1056800000060006001E001E0000000C000C001E9C
:1056900000120033003380618061000000000000D0
:1056A00000000000000000000000000000000000FA
:1056B00000000000000000000000000000000000EA
:1056C000000000000000000000000000E0FF0000FB
:1056D000000000380018000C00000000000000006E
:1056E00000000000000000000000000000000000BA
:1056F0000000000000000000000000000000001F8B
:10570000803F80618001801F803F80618063807F57
:10571000C038000000000000000000600060006071
:105720000060006E007F80738061806180618061B5
:105730008073007F006E0000000000000000000089
:10574000000000000000001E003F807380610060C8
:10575000006080618073003F001E000000000000B8
:1057600000008001800180018001801D803F8073E6
:1057700080618061806180618073803F801D000056
:105780000000000000000000000000000000001EFB
:10579000003F00738061807F807F00608071003FE8
:1057A000001E0000000000000000C007C00F000C39
:1057B000000C807F807F000C000C000C000C000CA3
:1057C000000C000C000C00000000000000000000B5
:1057D00000000000801D803F8073806180618061D7
:1057E00080618073803F801D80018063007F003E68
:1057F00000000060006000600060006F807F8071CA
:105800008061806180618061806180618061000071
:105810000000000000000006000600000000003E3E
:10582000003E000600060006000600060006000610
:105830000006000000000000000600060000000056
:10584000003E003E000600060006000600060006B8
:105850000006000600060046007E003C00000060D6
:10586000006000600060806100630066006C007C86
:105870000076006300638061C060000000000000EB
:105880000000003E003E000600060006000600067E
:1058900000060006000600060006000600060000DE
:1058A000000000000000000000000000000080DD9B
:1058B000C0FFC0CEC0CCC0CCC0CCC0CCC0CCC0CC53
:1058C000C0CC00000000000000000000000000004C
:1058D0000000006F807F80718061806180618061E5
:1058E0008061806180610000000000000000000015
:1058F000000000000000001E003F80738061806196
:10590000806180618073003F001E00000000000085
:105910000000000000000000006E007F80738061C6
:105920008061806180618073007F006E0060006034
:10593000006000600000000000000000801D803F4B
:10594000807380618061806180618073803F801D91
:105950008001800180018001000000000000000043
:1059600000000067803F0039003000300030003018
:105970000030003000300000000000000000000097
:10598000000000000000001E803F80610060007F7A
:10599000803F80018061007F001E00000000000049
:1059A00000000000000800180018007F007F0018A9
:1059B00000180018001800180018801F800F000041
:1059C00000000000000000000000000000008061F6
:1059D0008061806180618061806180618063807F9F
:1059E000803D0000000000000000000000000000FA
:1059F0000000C060803180318031001B001B001B23
:105A0000000E000E00060000000000000000000074
:105A100000000000000080DD80DD80DD00550055C5
:105A200000550077007700220022000000000000EF
:105A3000000000000000000000008061003300331F
:105A4000001E000C000C001E0033003380610000BB
:105A50000000000000000000000000008061806184
:105A6000803100330033001B001B001B000E000EB2
:105A7000000E001C007C0070000000000000000010
:105A80000000C07FC07F800100030006000C0018EA
:105A90000030C07FC07F000000000000800380074E
:105AA00000060006000600060006000E001C001C92
:105AB000000E0006000600060006000680078003B0
:105AC00000060006000600060006000600060006A6
:105AD0000006000600060006000600060006000696
